:100000000C942A000C9447000C9447000C94470071
:100010000C9447000C9447000C9447000C94470044
:100020000C9447000C9447000C9447000C94470034
:100030000C9447000C9449000C9447000C94470022
:100040000C9447000C9447000C9447000C94470014
:100050000C94470011241FBECFE5D8E0DEBFCDBF12
:1000600011E0A0E6B0E0EAE6F2E102C005900D92F0
:10007000A236B107D9F711E0A2E6B1E001C01D92A6
:10008000A63EB107E1F70E94C1000C9433090C941D
:1000900000001F920F920FB60F921124CF92DF92A1
:1000A000EF92FF920F931F932F933F934F935F9382
:1000B0006F937F938F939F93AF93BF93EF93FF9330
:1000C0008EE991E00E94ED051092630110926201A9
:1000D0008EE991E017C020916201309163012F5F9A
:1000E0003F4F309363012093620121503040C9019A
:1000F000880F991F820F931F85599E4F0E94CC082D
:1001000080E090E060E670E00E94C70890936A018A
:10011000809369016091690170916A0161157105AF
:10012000D1F68BE691E00E94A9086C018EE691E081
:100130000E94A9087C0181E791E00E94A9088C0136
:1001400084E791E00E94A9089C01C601B701A801BB
:100150000E947704FF91EF91BF91AF919F918F9192
:100160007F916F915F914F913F912F911F910F91CF
:10017000FF90EF90DF90CF900F900FBE0F901F90E9
:100180001895AF92BF92CF92DF92EF92FF920F93AA
:100190001F93CF93DF9381B3836081BB88E690E0A8
:1001A0000E94D0050E94CD050E9499038D9A8F9AD6
:1001B00097988FB581608FBD8EB588608EBD8FB5E5
:1001C000806C8FBD8EB581608EBD8FE790E09BBD4A
:1001D0008ABDB898C09A7894579AB998BA9AC29A30
:1001E000BB9AC398BC9AC49ABD9AC59A0E94380417
:1001F00080918F01909190016BE671E04AE050E0B0
:100200000E94FA0880918D0190918E016EE671E056
:100210004AE050E00E94FA0880917A0190917B01B7
:1002200061E771E04AE050E00E94FA08809197018E
:100230009091980164E771E04AE050E00E94FA086A
:10024000B0E9EB2EB1E0FB2EA4E6CA2ED12CF3E6EA
:10025000AF2EB12C01E0B199C298B19BC29A0E9415
:10026000D90380E090E00E949E0380E090E00E942D
:100270009E0380E090E00E949E03909395018093FE
:1002800094018055904066E070E00E944B088827FA
:1002900077FD8095982F0E94FD0560937C017093F7
:1002A0007D0180937E0190937F0188EE93E0F701BA
:1002B0003197F1F70197D9F781E090E00E949E0312
:1002C00081E090E00E949E0381E090E00E949E0306
:1002D000EC01909384018093830160917C01709183
:1002E0007D0180917E0190917F010E945B06C60195
:1002F000861B970B9093D4018093D301843691058C
:1003000024F0B092D401A092D3018091D3019091B6
:10031000D4011816190624F01092D4011092D301BA
:10032000B09904C000938001C49803C0109280016A
:10033000C49A83E0CB36D8071CF400939A01C59881
:10034000CA58D3401CF010929A01C59A80916E0150
:10035000803321F41092D9011092D80180916E015E
:10036000813331F481E090E09093D9018093D801FA
:1003700080916E01823331F482E090E09093D90154
:100380008093D80180916E01833331F483E090E053
:100390009093D9018093D8010E949C042091E4019C
:1003A0003091E501C901E4E095958795EA95E1F77B
:1003B000AC0173E0440F551F7A95E1F7880F991F40
:1003C000480F591F2F703070420F531F5093670111
:1003D000409366018091D8019091D901009789F0EE
:1003E0004817590774F48091DA019091DB011816CF
:1003F00019063CF08091DE019091DF011816190674
:100400003CF481E090E0909386018093850104C0E4
:1004100010928601109285010E9438042091970164
:10042000309198018091D3019091D4018217930764
:100430000CF03DC08091850190918601019709F0F3
:1004400036C080918001882391F5979A80E29EE4DE
:10045000F7013197F1F70197D9F780917101823354
:1004600039F480E29EE4F7013197F1F70197D9F76B
:1004700080917101833339F480E49CE9F70131976D
:10048000F1F70197D9F7979880E38093770180E09F
:1004900090E060E070E040E050E00E940A0580E0FB
:1004A00090E060E070E040E050E00E9456058091EE
:1004B0007701813309F036C080918001882391F55E
:1004C000979A80E49CE9F7013197F1F70197D9F702
:1004D00080917101823339F480E69DE6F70131970E
:1004E000F1F70197D9F780917101833339F480E2F4
:1004F0009BECF7013197F1F70197D9F7979880E3D3
:100500008093770180E090E060E070E040E050E0B0
:100510000E940A0580E090E060E070E040E050E07A
:100520000E9456058091800190E068EA71E04AE0FF
:1005300050E00E94FA081EE51093A90180919A01EB
:1005400090E06AEA71E04AE050E00E94FA081093F5
:10055000AB01909199019A3040F480E28093AC0114
:10056000892F90E06DEA71E004C0892F90E06CEA79
:1005700071E04AE050E00E94FA081EE51093AE01D7
:100580008091910190E06FEA71E04AE050E00E94B2
:10059000FA081093B1012091D3013091D4012A308F
:1005A00031053CF480E28093B201C90163EB71E054
:1005B00003C0C90162EB71E04AE050E00E94FA0812
:1005C0001EE51093B40180916B018093B5011093E7
:1005D000B60180916E018093B7011093B8018091AC
:1005E00071018093B9011093BA01809197019091A4
:1005F00098016BEB71E04AE050E00E94FA088091AC
:1006000074018093BB01809175018093BC011093AC
:10061000BD0180918501909186016EEB71E04AE009
:1006200050E00E94FA081093BF012091920130918E
:1006300093012A3031053CF480E28093C001C90166
:1006400061EC71E003C0C90160EC71E040E150E091
:100650000E94FA088EE58093C2012091DC0130915E
:10066000DD012A3031053CF480E28093C301C901E9
:1006700064EC71E003C0C90163EC71E040E150E05B
:100680000E94FA088EE58093C5012091E401309123
:10069000E5012A3031053CF480E28093C601C901AE
:1006A00067EC71E003C0C90166EC71E040E150E025
:1006B0000E94FA088EE58093C8012091DA013091FA
:1006C000DB012A3031054CF480E28093C901C90175
:1006D0006AEC71E040E150E005C0C90169EC71E0ED
:1006E0004AE050E00E94FA081EE51093CB01809189
:1006F0008301909184016CEC71E04AE050E00E942B
:10070000FA081093CF01809194019091950160EDCA
:1007100071E04AE050E00E94FA0888EA91E00E9405
:10072000E30588E99AE3F7013197F1F70197D9F7E3
:1007300092CD3E9A86B1836886B9089597B1987F25
:10074000982B97B9369A3699FECF24B135B1C901A5
:1007500008958E9A969888EC90E020E931E0F901AE
:100760003197F1F70197D9F7969A08958E9886995F
:10077000FECF869BFECF8699FECF089580919B0188
:1007800020E030E040EA869BFECF942F9A95F1F767
:10079000869B03C0880F816001C0880F8699FECFB9
:1007A0002F5F3F4F2830310571F780939B0190E018
:1007B00008950E94A9030E94B6030E94BE0380937D
:1007C00091010E94BE03809368010E94BE03809342
:1007D00099010E94BE038093E1010E94BE038093B1
:1007E000D70108950E94A20580ED0E94AE058CE01D
:1007F0000E94AE050E94A20581ED0E94AE051092F6
:1008000096012FC080E0973009F081E00E94C20578
:100810008093E00190919601992329F48093E2015D
:100820001092E3011BC0913029F480938101109252
:10083000820114C0923029F48093D5011092D60120
:100840000DC0933029F480939C0110929D0106C045
:10085000943021F480938B0110928C019F5F9093D0
:10086000960190919601983068F20E94A80508952B
:100870000E94A20580ED0E94AE0588E00E94AE05B0
:100880000E94A20581ED0E94AE051092960128C03B
:1008900080E0973009F081E00E94C2058093E0017A
:1008A00090919601992329F480938F0110929001E1
:1008B00014C0913029F480938D0110928E010DC0E7
:1008C000923029F480937A0110927B0106C0933014
:1008D00021F480939701109298019F5F9093960165
:1008E000909196019830A0F20E94A8050895EF9289
:1008F000FF920F931F93182F062FF42EE22E0E94C3
:10090000A20580ED0E94AE0588E00E94AE05812F11
:100910000E94AE05802F0E94AE058F2D0E94AE056D
:100920008E2D0E94AE050E94A80580E090E01F91E8
:100930000F91FF90EF9008950E94A20580ED0E9414
:10094000AE0580E00E94AE050E94A20581ED0E94E6
:10095000AE051092960136C080E0973009F081E034
:100960000E94C2058093E00190919601992329F499
:100970008093890110928A0122C0913029F48093DA
:100980009201109293011BC0923029F48093DC01F4
:100990001092DD0114C0943029F48093E401109288
:1009A000E5010DC0953029F48093DA011092DB0146
:1009B00006C0963021F48093DE011092DF019F5F24
:1009C0009093960190919601983030F20E94A8057C
:1009D00008950E949C040E94A20580ED0E94AE052D
:1009E0008CE00E94AE05809192010E94AE0580913C
:1009F000DC010E94AE058091E4010E94AE05809169
:100A0000DA010E94AE058091DE010E94AE050E94CF
:100A1000A8050895CF92DF92EF92FF920F931F9354
:100A20008C017B016A010E94A20580ED0E94AE0547
:100A300084E00E94AE05C8016AE070E00E944B08A5
:100A4000262F2295207FC8016AE070E00E944B08A3
:100A5000820F0E94AE05C7016AE070E00E944B0859
:100A6000262F2295207FC7016AE070E00E944B0884
:100A7000820F0E94AE05C6016AE070E00E944B083A
:100A8000262F2295207FC6016AE070E00E944B0865
:100A9000820F0E94AE050E94A80580E090E01F91A1
:100AA0000F91FF90EF90DF90CF900895CF92DF925B
:100AB000EF92FF920F931F936C017B018A010E94BA
:100AC000A20580ED0E94AE0580E00E94AE05C8013F
:100AD0006AE070E00E944B08262F2295207FC80113
:100AE0006AE070E00E944B08820F0E94AE05C701C9
:100AF0006AE070E00E944B08262F2295207FC701F4
:100B00006AE070E00E944B08820F0E94AE05C601A9
:100B10006AE070E00E944B08262F2295207FC601D4
:100B20006AE070E00E944B08820F0E94AE050E94AE
:100B3000A80580E090E01F910F91FF90EF90DF906B
:100B4000CF90089584EA86BF06B607FEFDCF0895CC
:100B500084E986BF06B604FCFDCF089583B984E816
:100B600086BF06B607FEFDCF81B121B190E082318C
:100B700009F491E080E02C3109F481E0982B81E0C8
:100B800089270895882311F484E801C084EC86BF86
:100B900006B607FEFDCF83B1089584E680B90895B7
:100BA000292F332727FD3A9520BD89B988E18AB9D5
:100BB00086E880BD08955D9BFECF8CB908955F9B4C
:100BC000FECF8CB10895FC0104C05D9BFECF319631
:100BD0008CB980818823C9F70895FC015F9BFECF03
:100BE0008CB15D9BFECF8CB9883011F43197F6CF74
:100BF00081938A3099F710820895A8E0B0E0E3E08D
:100C0000F6E00C947B089B01AC0183E08983DA0158
:100C1000C9018827B7FD83959927AA27BB27B82E36
:100C2000211531054105510519F482E089833AC047
:100C30008823A9F0203080E0380780E0480780E86A
:100C4000580729F460E070E080E09FEC30C0EE24AB
:100C5000FF248701E21AF30A040B150B02C0790185
:100C60008A018EE1C82ED12CDC82CB82ED82FE82FD
:100C70000F831887C801B7010E94AF0601971816A5
:100C8000190684F4082E04C0EE0CFF1C001F111F6F
:100C90000A94D2F7ED82FE820F831887C81AD90A08
:100CA000DC82CB82BA82CE0101960E94FE06289693
:100CB000E9E00C949708ACE0B0E0E1E6F6E00C94D3
:100CC000820869837A838B839C83CE010196BE015F
:100CD0006B5F7F4F0E94D3078D81823061F182303C
:100CE00050F1843021F48E81882351F12EC02F8160
:100CF000388537FD20C06E812F3131051CF0662309
:100D0000F9F023C08EE190E0821B930B29853A8590
:100D10004B855C8504C056954795379527958A95F0
:100D2000D2F76623B1F050954095309521953F4F0D
:100D30004F4F5F4F0EC020E030E040E050E009C070
:100D40002FEF3FEF4FEF5FE704C020E030E040E0DF
:100D500050E8B901CA012C96E2E00C949E08EF928B
:100D6000FF920F931F937B018C0180E0E81680E0D7
:100D7000F80681E0080780E0180788F48FEFE8168E
:100D8000F1040105110531F028F088E090E0A0E0C1
:100D9000B0E017C080E090E0A0E0B0E012C080E0DA
:100DA000E81680E0F80680E0080781E0180728F0E0
:100DB00088E190E0A0E0B0E004C080E190E0A0E035
:100DC000B0E020E230E040E050E0281B390B4A0B55
:100DD0005B0B04C016950795F794E7948A95D2F7B4
:100DE000F701EE59FF4F8081281B31094109510954
:100DF000C9011F910F91FF90EF900895DF92EF923C
:100E0000FF920F931F93FC01E480F5800681178108
:100E1000D1808081823048F480E090E0A0E1B0E0B1
:100E2000E82AF92A0A2B1B2BA5C0843009F49FC09D
:100E3000823021F4EE24FF24870105C0E114F1047F
:100E40000105110519F4E0E0F0E096C062817381BC
:100E50009FEF623879070CF05BC022E83FEF261B5A
:100E6000370B2A3131052CF020E030E040E050E033
:100E70002AC0B801A701022E04C076956795579540
:100E800047950A94D2F781E090E0A0E0B0E004C07A
:100E9000880F991FAA1FBB1F2A95D2F70197A10996
:100EA000B1098E219F21A023B1230097A105B1058F
:100EB00021F081E090E0A0E0B0E09A01AB01282BA6
:100EC000392B4A2B5B2BDA01C9018F779070A07008
:100ED000B07080349105A105B10539F427FF09C030
:100EE000205C3F4F4F4F5F4F04C0215C3F4F4F4F3F
:100EF0005F4FE0E0F0E02030A0E03A07A0E04A07D2
:100F0000A0E45A0710F0E1E0F0E079018A0127C07F
:100F10006038710564F5FB01E158FF4FD801C70146
:100F20008F779070A070B07080349105A105B105E5
:100F300039F4E7FE0DC080E490E0A0E0B0E004C02A
:100F40008FE390E0A0E0B0E0E80EF91E0A1F1B1F3F
:100F500017FF05C016950795F794E794319687E03B
:100F600016950795F794E7948A95D1F705C0EE2476
:100F7000FF248701EFEFF0E06E2F679566276795F6
:100F8000902F9F77D794DD24D7948E2F8695492F65
:100F9000462B582F5D29B701CA011F910F91FF9071
:100FA000EF90DF900895FC01DB01408151812281A7
:100FB000622F6F7770E0221F2227221F9381892FD3
:100FC000880F822B282F30E0991F9927991F11969F
:100FD0009C93119721153105A9F54115510561051E
:100FE000710511F482E037C082E89FEF13969C935D
:100FF0008E9312979A01AB0167E0220F331F441FB3
:10100000551F6A95D1F783E08C930DC0220F331FD3
:10101000441F551F12968D919C911397019713961B
:101020009C938E931297203080E0380780E0480729
:1010300080E4580758F314962D933D934D935C9399
:10104000179708952F3F310579F441155105610532
:10105000710519F484E08C93089564FF03C081E066
:101060008C9312C01C9210C02F57304013963C93A3
:101070002E93129783E08C9387E0440F551F661FD1
:10108000771F8A95D1F7706414964D935D936D9395
:101090007C931797089597FB092E07260AD077FDB2
:1010A00004D00CD006D000201AF4709561957F4FC3
:1010B0000895F6F7909581959F4F0895AA1BBB1B45
:1010C00051E107C0AA1FBB1FA617B70710F0A61B48
:1010D000B70B881F991F5A95A9F780959095BC0169
:1010E000CD0108952F923F924F925F926F927F921F
:1010F0008F929F92AF92BF92CF92DF92EF92FF9228
:101100000F931F93CF93DF93CDB7DEB7CA1BDB0BD3
:101110000FB6F894DEBF0FBECDBF09942A88398878
:1011200048885F846E847D848C849B84AA84B9847F
:10113000C884DF80EE80FD800C811B81AA81B9818B
:10114000CE0FD11D0FB6F894DEBF0FBECDBFED019F
:101150000895FC0188279927E89421912032E9F32A
:10116000293010F02E30C8F32B3241F02D3239F4F3
:10117000689404C00E941B09820F911D2191205385
:101180002A30C0F31EF4909581959F4F089544E650
:1011900051E00E94D3080895FB01DC0101900D92FB
:1011A0000020E1F70895FA01A191B081009719F4A8
:1011B0001097E1F0CD01DC01CD010D90002011F47C
:1011C000C00113C0FB012191222319F02015D9F78A
:1011D000F3CFFB012191201519F41E92119606C040
:1011E0002223C1F70D900020A1F7D001FA01A193AD
:1011F000B0830895FB019F01E8944230C4F045326A
:10120000B4F44A3029F497FB1EF4909581959F4FD2
:10121000642F77270E945E08805D8A330CF0895D19
:101220008193CB010097A1F716F45DE251931082F0
:10123000C9010C9423097AE0979F902D879F802DF8
:10124000910D11240895DC01FC01672F7191772322
:10125000E1F7329704C07C916D9370836291AE1771
:0A126000BF07C8F30895F894FFCF0C
:10126A005E000001020203030303040404040404ED
:10127A000404050505050505050505050505050516
:10128A0005050606060606060606060606060606F6
:10129A0006060606060606060606060606060606E4
:1012AA0006060707070707070707070707070707C6
:1012BA0007070707070707070707070707070707B4
:1012CA0007070707070707070707070707070707A4
:1012DA000707070707070707070707070707070794
:1012EA000707080808080808080808080808080876
:1012FA000808080808080808080808080808080864
:10130A000808080808080808080808080808080853
:10131A000808080808080808080808080808080843
:10132A000808080808080808080808080808080833
:10133A000808080808080808080808080808080823
:10134A000808080808080808080808080808080813
:10135A000808080808080808080808080808080803
:02136A00080871
:00000001FF
